:020000040000FA
:1000000068020020F100000017010000D500000088
:1000100000000000000000000000000000000000E0
:100020000000000000000000000000001B010000B4
:1000300000000000000000001D0100001F01000082
:100040002101000021010000210100002101000028
:100050002101000021010000210100002101000018
:10006000210100002101000021010000210F0000FA
:10007000890F000021010000210100002101000082
:1000800021010000210100002101000021010000E8
:1000900021010000210100002101000021010000D8
:1000A0002101000021010000BD0500002101000028
:1000B00021010000210100002101000021010000B8
:1000C0000348854600F09AF8004800474D170000A5
:1000D0006802002004207146084202D0EFF3098034
:1000E00001E0EFF308807146004A10471505000053
:1000F0000C480D4901600D4901600D4901600D4A30
:100100000D4911600D4A0E491160002101600D4832
:1001100080470D480047FEE7FEE7FEE7FEE7FEE703
:10012000FEE700000001004059000000160000003A
:100130008800000024000040A55A00008002004012
:1001400001000000050E0000C100000030B50B46A4
:10015000014600202022012409E00D46D5409D42A1
:1001600005D31D469540491B254695404019154627
:10017000521E002DF1DC30BD03460B439B0703D01C
:1001800009E008C9121F08C0042AFAD203E00B785C
:100190000370401C491C521EF9D27047F0B51FB4C1
:1001A0000646002082B005464024019100901BE0E5
:1001B000019922460F46304600F042F8049A059B0A
:1001C000801A994110D310461946224600F028F8AB
:1001D000361A8F410197224601200021009F00F02E
:1001E0001FF838184D4100902046641E0028DFDCBF
:1001F000019B00982946324607B0F0BD064C012508
:10020000064E05E0E36807CC2B430C3C98471034BE
:10021000B442F7D3FFF758FFE418000004190000B8
:1002200010B5202A04DB0146203A9140002010BD81
:10023000914020239C1A0346E3401943904010BD8F
:1002400010B5202A04DB0846203AD040002110BD1A
:100250000B46D340D0402024A21A914008431946AF
:1002600010BD00000EB509490EC900910192810F21
:100270008A00029369468A58054951184A68C3069C
:10028000DB0E0120984002434A600EBD6418000056
:100290000002004002490A6802430A6070470000F9
:1002A0000002004010B500F063FD0148006810BD79
:1002B0000000002010B500F05BFD0148006810BD93
:1002C0000000002002480068C00700D001487047C5
:1002D000000200400048E80104480068800702D599
:1002E0000120C0037047002070470000000200405A
:1002F00010B500F03DFD0448406B41070348490F2D
:100300000068C84010BD000000020040000000204E
:1003100010B500F02DFD0448406B4006410F034826
:100320000068C84010BD000000020040000000202E
:1003300008B511A000681149009009680020052245
:100340001204114216D1080301D50D4800E00D48F2
:100350008A030FD40A04920F6B469B5CCA0589047A
:10036000D20DC90E891C8008921C59435043FFF7D7
:10037000EDFE800008BD00000102020440020040C2
:10038000001BB7000048E80108B511A0006811493A
:1003900000900968002005221204114216D10803BA
:1003A00001D50D4800E00D488A030FD40A04920FCE
:1003B0006B469B5CCA058904D20DC90E891C800856
:1003C000921C59435043FFF7C1FE800008BD000056
:1003D0000102020440020040001BB7000048E8018F
:1003E000F3B5124881B005690F4610200F4C054047
:1003F000403C2068042630432060102000F050F874
:100400002069072108432061206A00090001384360
:1004100020622069884301990843206100F0A8FC0C
:10042000002D02D12068B0432060FEBD4002004094
:10043000F0B5194B88B0F0CB009401ACE0C478CB98
:1004400004AF78C7840A23061B0E0ED003039B0F4C
:100450009B0004ADEB58114D5B19E5B28405E40E29
:10046000A5401C68AC4314431C60420E520710D0D8
:100470008200920F92006B469A58084B103BD2189C
:1004800003015B0FC001C00E83401068984308430E
:10049000106008B0F0BD00004418000020020040C9
:1004A00010B504460749084B05E00A46491E002AD4
:1004B00001DC002010BD1A6920469043F5D10120CF
:1004C00010BD000080F520004002004010B5064C31
:1004D00001229103204600F009F80122D1032046B1
:1004E00000F004F810BD000040400040F0B50023CB
:1004F00001273C469C400C4208D005685C0003265E
:10050000A640B5431646A640354305605B1C102B3C
:10051000EFD3F0BD044603A000F0ACFE204601F08E
:1005200025F9FEE7496E2048617264204661756CCA
:10053000742048616E646C65720A0000BFF34F8FCF
:1005400004490348C860BFF34F8F00BFFDE70000B8
:100550000400FA0500ED00E010B50124A3028C4070
:10056000C318002A07D0012A09D0022A02D1986BA9
:10057000A043986310BD9869A043986110BD09011C
:10058000425880231A43425010BD10B50124A302E3
:100590008C40C318002A07D0012A09D0022A02D1B0
:1005A000986B2043986310BD98692043986110BDF3
:1005B0000901425880239A43425010BD10B5124C95
:1005C000E069C10705D011A000F054FE206A206246
:1005D00010BD81070FD5606A0007F9D50820606259
:1005E0001148C16849084900C1601048416810229B
:1005F0001143416010BDC005FCD50DA000F03AFECE
:100600000120C002E06110BD008400407461726787
:1006100065742061626F727420696E7465727275A0
:1006200070742021210A00000010064010000020F4
:1006300074696D656F757420696E7465727275701A
:10064000742021210A00000070B50022094D012606
:100650001346344694400C4202D014010351AB546B
:10066000521C092AF5D301229202801802680A431B
:10067000026070BD1C0000200C49C8698207FCD5CF
:100680004A6A12070CD5082048620948C16849081F
:100690004900C1600748416810221143416070471A
:1006A000C007EAD0086A0862704700000084004072
:1006B000001006401000002030B509014458742590
:1006C000AC43445044581A431443445030BD70B5B1
:1006D00009010E18049D059C7260B56042580F25F3
:1006E0002D02AA434250425823431A43425070BD40
:1006F00030B509014458064D2C404450445801255A
:100700001B042D045B1B13431C43445030BD0000ED
:10071000FFCF0000FFB52F4B17025A540923DB010E
:10072000C418160415060B0000F0B4FD09060C12DF
:10073000191F252B32383D0023689B099B01134369
:10074000236030E022683F231B029A433A4304E0CF
:1007500022683F231B049A433243226023E022682D
:100760003F231B069A432A43F7E763689B099B01D3
:100770001343636017E062683F231B029A433A43C6
:1007800004E062683F231B049A43324362600AE03C
:1007900062683F231B069A432A43F7E7A3689B0935
:1007A0009B011343A360039A0901002A42580CD00D
:1007B00092089200921C4250012292028218D36B3E
:1007C000099AD21A0818C260FFBD92089200521C02
:1007D0004250FFBD1C0000208168092291438160C6
:1007E000704710B583680D24A34311430B430821C0
:1007F0000B43836010BD0000F8B505462A480C463F
:100800000022FF230146203183548B54521C92B2A4
:10081000202AF9D32548264F0090082304220021DE
:10082000384600F04DF8234E20207168002C07D088
:1008300001437160002201213846FFF7D2FF17E023
:100840008143716000F076FA01208007016B0F226E
:10085000120391430163016B0163012208211648D1
:10086000FFF744FE1548002101603846FFF7B4FF4A
:10087000002D04D0012D07D0022D0FD107E07068A4
:1008800040210843706009E07068802102E07068D0
:10089000FF2101310843706000F0A0F87068022168
:1008A00088437060F8BD000025000020400D030063
:1008B00000100640100000200040004000010040F1
:1008C000FFB5044681B040480A9D1E46844202D0CE
:1008D000002005B0F0BD206E400840002066202EAC
:1008E00000D10026FFF7E6FC07460299012200230B
:1008F0003648002915D0A360029D31022943039D8B
:100900002943114321606360044680693021884394
:100910002030A061FFF7CEFC616B4907490F491CED
:100920004EE00021A160039B310219431143216075
:10093000BD4204D3816930229143203181618169B4
:100940008906890F12D081698906890F01290FD084
:1009500081698906890F02290DD01D4EBD4201D241
:10096000B54211D3002060603046B2E7194EF5E77A
:10097000FFF7DEFC06E0406B4107490F3846491C93
:10098000FFF7E4FB0646E9E7134F002D0CD0304695
:100990000A2148432946FFF7D9FB0A21401DFFF7EA
:1009A000D5FB401EFF2804D9606838436060300AD8
:1009B0008FE76168490A490201436160411C304682
:1009C000FFF7C4FB85E7000000100640000200406E
:1009D000006CDC020048E801FF0100007CB5284CF7
:1009E000606800268006002801DB2648C660606833
:1009F000102188436060244D18212846FFF724FE0B
:100A00002023002203212846FFF772FE03218902DA
:100A10001E480191009000231D4A03212846FFF73C
:100A200056FE00231222032128460096FFF772FE8D
:100A30000023042203212846FFF73EFE0122032162
:100A40002846FFF789FD11482038C168012211436B
:100A5000C1606068C00504D5002203212846FFF765
:100A600094FD6068000601D5FFF706FE6068C005CA
:100A700003D5012007498006086000F0EBF87CBD33
:100A80001000002000480040008000402010064078
:100A90002500002000E100E0F8B53B4C0020616833
:100AA000802709070426394D002926DA61680822C3
:100AB00091436160014681312954401C80B2202855
:100AC000F8D32F70842068708120A870EE70217890
:100AD0000846403129710146513169711131A971BE
:100AE0002E3169779230E87700F052F820780928A3
:100AF00001D9012000E0401C20706068400724D527
:100B00006068B04360600020014681312954401C78
:100B100080B22028F8D32F702078014610316970F8
:100B20001131A9703230E870672028776520687726
:100B30007420A8774120E87700F02AF82078092867
:100B400001D9012000E0401C2070606880071AD5A0
:100B5000606802218843606000200146803129548A
:100B6000401C80B22028F8D3207801469031A97724
:100B70009230E87700F00CF82078092801D901209C
:100B800000E0401C2070F8BD10000020250000206F
:100B9000FEB52B4E0024706827468006002801DB36
:100BA0002848C76070681021884370607068716859
:100BB0000006C905244D08432BD52023002203211C
:100BC0002248FFF795FD204803218902203001913A
:100BD000009000231E4A03211C48FFF778FD0023E4
:100BE0001222032119480097FFF794FDE8680121BC
:100BF0000843E8607068C00504D50022032113484B
:100C0000FFF7C3FC7068000601D5FFF735FD00F063
:100C100021F87068400611D50D49085D28626869A1
:100C2000C007FCD1641C202CF7D37068800605D463
:100C30006869C007FCD103490120C860FEBD0000FF
:100C400010000020004800400010064000800040D6
:100C50002500002007484168890609D44168C90673
:100C6000FCD505484169C907FCD104490120C86089
:100C700070470000100000200010064000480040AF
:100C800010B500F057F80420FFF704FB1020FFF721
:100C900007FC00210720FFF7A3FB1A4C2046FFF7B3
:100CA000E1FA0321002209062046FFF7C1FB164C9A
:100CB0002046FFF7D7FA0721002209052046FFF753
:100CC000B7FB124C002220212046FFF7B1FB204643
:100CD000FFF7C8FA0120FFF7C5FAA007C16BFF2292
:100CE00012049143332252048918C163016B084AEC
:100CF000090C09048918016300F03AF8054900203D
:100D0000086010BD103D805F0500405F0D0040662B
:100D100044440000000100400121020E89075118DF
:100D20008B680122824013438B60886890438860FF
:100D30007047000010B5592104481622882301602D
:100D4000026003600468002CF9D010BD000100406F
:100D500006498A691202FCD40A2804D10D220A60CD
:100D60008A691202FCD40860704700000000074046
:100D7000F8B51D4D28691C4944071CA00068009067
:100D8000640F00204031096805221204114216D177
:100D9000080301D5164800E016488A030FD40A0458
:100DA000920F6B469B5CCA058904D20DC90E891C43
:100DB0008008921C59435043FFF7C8F980000E4E3B
:100DC000022CB06002D00D49A0000858296A09071A
:100DD000090F491CFFF7BAF9094930604A10801819
:100DE000FFF7B4F97060F8BD000200400102020490
:100DF000001BB7000048E801000000202418000094
:100E000040420F0010B559210A481623882201607C
:100E1000036002600468002CF9D007490B680722C0
:100E2000120593430B600B6813430B6000210160B4
:100E300010BD0000000100400002004010B50A4C47
:100E40007D220121D200C906204600F049F8206821
:100E50002106084320608814044908602068890539
:100E60000843206010BD00002010054000E100E0B4
:100E700010B588B00446202215496846FFF77CF972
:100E8000144B144A14482033944202D14069000A9A
:100E90000BE09C4202D14069000B06E00F4940691B
:100EA0008C4201D1000C00E0000D4107490F0229DE
:100EB00004D088006946085808B010BD944201D09B
:100EC0009C4202D1FFF714FAF6E7FFF721FAF3E7A5
:100ED0007C180000000005400002004000100540A2
:100EE000F7B517460646FFF7C3FF0546002440083E
:100EF000B84201D8022008E039462846FFF726F913
:100F0000040E02D0611CFFF721F9019921433160E1
:100F10007060641C604301462846FFF717F9FEBD68
:100F200070B516488168C907C90F1FD001268660B1
:100F300000F070FC124D7D21AC68C9002046FFF71F
:100F400005F9002903D10F48816B7140816332217B
:100F50002046FFF7FBF8002908D16878411C69702A
:100F60000328686803D002210843686070BD082127
:100F7000084368600020687070BD000020100540C4
:100F8000100000204048004010B50B4CE0691121D2
:100F90000902084202D104E000F044F9A1694904C1
:100FA000FAD5A16920467122114203D00921890294
:100FB00000F07EF810BD00000000074010B5184892
:100FC000FFF7AAFE174CE1214902204600F090F8F5
:100FD0001121204600F088F8012013490003086021
:100FE000FFF760F9014611A000F044F9FFF76AF934
:100FF000014615A000F03EF9FFF76EF9014618A072
:1010000000F038F9FFF774F901461BA000F032F93F
:10101000FFF77EF901461FA000F02CF910BD00007B
:10102000100000040000074000E100E00D0A434CFE
:101030004B5F47657443505546726571203A2025D1
:1010400038640D0A00000000434C4B5F476574484C
:10105000585446726571203A202538640D0A000004
:10106000434C4B5F4765744C585446726571203A47
:10107000202538640D0A0000434C4B5F47657450CF
:10108000434C4B3046726571203A202538640D0A76
:1010900000000000434C4B5F47657450434C4B319C
:1010A00046726571203A202538640D0A0000000060
:1010B000CA0102D501221204C2614A0503D5702279
:1010C0008261082282610A0503D5426901231A431D
:1010D00042618A0401D5034A8261490401D51F2176
:1010E000416470470100000142680A434260704752
:1010F000F0B587B00F46044600252E4618223E491B
:101100006846FFF739F83D493D483E4A8C4204D1D4
:101110004369006A5B015D0F1FE03B4B9C4204D1B9
:101120004369006A5B005D0F22E0944204D1C36909
:10113000006B5B015D0F11E0344B9C4206D1C3692B
:10114000006B5B005D0F0006060F13E0304B9C4206
:1011500007D1C369006B5B035D0F000A0607360FFA
:1011600008E02C4B9C4205D1C369006B5B025D0F0C
:101170000004060F002020630320E060A068264BD7
:101180001840A060012D02D0042D04D013E0FFF719
:10119000FBF801900FE08C4207D0944205D01C4828
:1011A000844202D01D48844202D1FFF7A1F801E039
:1011B000FFF7AEF80490002F1BD0A90068464058F6
:1011C000711CFEF7C3FF0546790840183946FEF743
:1011D000BDFF1349801E884207D9F90068183946B7
:1011E000FEF7B4FF0009801E02E00321090708434F
:1011F000606207B0F0BD00009C18000000000740CE
:101200000002004000200740001007400030074067
:1012100000400740005007400FFFF0FF006007400C
:10122000FFFF000010B50D480068C0B2782813D049
:10123000582811D07F2803D909A000F01BF810BD51
:101240005A2809D004DC3128F9D05828F7D103E016
:10125000782801D07A28F2D1FFF770F90000074012
:10126000696E76616C696420636F6D6D616E640D8B
:101270000A0000000FB410B503A9044B044A0298F9
:1012800000F024F810BC08BC04B018474117000057
:101290000C00002030B47446641E2578641CAB42F8
:1012A00000D21D46635D5B00E31830BC184702E0C6
:1012B00008C8121F08C1002AFAD1704770470020E1
:1012C00001E001C1121F002AFBD17047FFB591B0A8
:1012D0000F460546002606E025280AD0149A1399E1
:1012E00090476D1C761C28780028F5D1304615B043
:1012F000F0BD002400940121F34A029400E004436D
:101300006D1C2B780846203B98401042F7D1287876
:101310002A280ED0022128780246303A092A15D808
:10132000009A0A235A43303A80180C436D1C0090EF
:10133000F1E701CF0090002805DA012040030443C3
:10134000009840420090022004436D1C28782E280B
:1013500015D10420044368786D1C2A280AD101CFD6
:101360006D1C02900BE002990A225143303940185B
:101370006D1C02902878014630390929F3D9287864
:101380006C2810D006DC4C281AD068280ED06A28A9
:1013900017D104E0742813D07A2812D110E001206C
:1013A000400504430CE00121090501E00321090582
:1013B0000C436978814203D10120000524186D1C7B
:1013C0006D1C287803906E281ED00CDC632831D069
:1013D00004DC00288AD0582811D1B2E064287BD0E0
:1013E00069280CD178E073282DD004DC6F2870D0E8
:1013F000702804D1A7E075286CD078286BD0149A97
:1014000013999047761C62E06002400F022807D0D3
:1014100003280AD0042838680AD006603F1D56E029
:101420003868F11706604160F8E738680680F5E72C
:101430000670F3E73878694608740020487404A8F9
:101440000390012003E0386803900020C0433F1D53
:1014500061070FD5002101E00199491C029A019111
:10146000914213DA8142F7DB019A0399895C0029E2
:10147000F2D10BE0002101E00199491C0191814268
:10148000FADB019A0399895C0029F5D1019900984A
:10149000139A401A00902146149B00F03BF90199E1
:1014A0008019461807E0039803990078491C0391B6
:1014B000149A139990470198401E0190401CF2D154
:1014C0002146149B139A009800F014F986196D1C9C
:1014D00009E741E033E034E00A200021049005915F
:1014E0006002410F022905D001CFC217944603299B
:1014F00005D007E0FF1DFF08FF0003CF06E000B2A4
:10150000C2179446042902D140B2C1178C4600226A
:101510006146944506DA0A460021404291418C46D4
:101520002D2102E0210504D52B216A4611760121E7
:1015300003E0E10701D02021F7E7019154E00A2000
:101540000BE0102009E01020049000210420044347
:1015500008200591029003E00820002105910490E5
:101560006002410F022905D001CF002294460329D1
:1015700006D006E0FF1DFF08FF0003CF8C4603E006
:1015800080B2042900D1C0B20021019121072BD5DE
:101590000399702906D0049A1021059B4A401A43EA
:1015A00005D00EE040216A461176012108E061462F
:1015B000014306D030216A46117603995176022103
:1015C0000191049A0821059B4A401A430CD16146B7
:1015D000014301D1610707D530216A461176012107
:1015E00001910299491E02910399582904D037A10B
:1015F00003910FA90F910DE039A1F9E76146059B11
:10160000049AFEF7CBFD039B8C469B5C0F9A521EFF
:101610000F92137061460143F0D10F9807A9081A81
:1016200020300390600704D5012000048443029811
:1016300001E0012002900399884201DD401A00E098
:10164000002041180290019809180098401A009053
:10165000E00306D42146149B139A009800F05AF830
:1016600086190020049008E006A9085C149A1399D2
:1016700090470498401C761C049001998842F3DB43
:10168000E0030CD52146149B139A009800F042F811
:10169000861904E0149A302013999047761C029919
:1016A000481E02900029F5DC08E00F980F99007899
:1016B000491C0F91149A13999047761C0399481E60
:1016C00003900029F1DCFBE60928010030313233B8
:1016D000343536373839616263646566000000006E
:1016E0003031323334353637383941424344454658
:1016F00000000000F8B5044600251E461746880481
:1017000004D405E039462020B0476D1C641EF9D58D
:101710002846F8BDFFB50446002581B01E46C80323
:1017200001D5302700E02027880404D505E038469D
:101730000399B0476D1C641EF9D5284605B0F0BD6D
:1017400010B50446FFF704FB204610BDFFF798FADA
:10175000FFF734FCFEF7BAFEFFF770FB0021022012
:10176000FFF74AF8FFF798F9FCE7000010B50446C8
:10177000016810A0FFF77EFD11A06168FFF77AFDF8
:1017800012A0A168FFF776FD13A0E168FFF772FDD4
:1017900014A02169FFF76EFD15A06169FFF76AFDCE
:1017A00016A0A169FFF766FD17A0E169FFF762FDCA
:1017B00010BD0000723020203D20307825780A00CE
:1017C000723120203D20307825780A0072322020A6
:1017D0003D20307825780A00723320203D20307873
:1017E00025780A00723132203D20307825780A00B1
:1017F0006C7220203D20307825780A00706320200C
:101800003D20307825780A00707372203D203078B2
:1018100025780A0002488168491C816070470000F1
:10182000100000200048E8010080000000D8B80542
:1018300000960000006CDC020000000000000000C8
:10184000006CDC0200000000040000000800000042
:101850000C0000000000000000000000000000007C
:10186000100000000000000004000000080000005C
:101870000000000004000000080000000048E8012B
:1018800000800000000000000000000000000000D8
:101890000096000000000000006CDC020048E80137
:1018A0000000000000800000006CDC02000000006E
:1018B000009600000048E8010000000000800000E1
:1018C000006CDC0200000000009600000048E80107
:1018D0000000000000800000006CDC02000000003E
:1018E0000096000004190000000000201C00000009
:1018F000AE120000201900001C0000204C02000065
:10190000BE12000000D8B8056000000000D8B8057D
:1019100000000000010000000000000000000000C6
:04000005000000F106
:00000001FF
